:100000000C9469000C9491000C9491000C94910054
:100010000C9491000C9491000C9491000C9491001C
:100020000C9491000C9491000C9491000C9410127B
:100030000C9491000C9491000C9491000C949100FC
:100040000C9418100C9491000C94A40D0C947E0D3B
:100050000C9491000C9491000C9491000C949100DC
:100060000C9462100C949100E9030E04D703210450
:100070004004720467047204720472049D04F8035D
:1000800000000000240027002A00000000002500D6
:1000900028002B00040404040404040402020202E5
:1000A000020203030303030301020408102040803B
:1000B00001020408102001020408102000000008BA
:1000C000000201000003040700000000000000001F
:1000D000651811241FBECFEFD8E0DEBFCDBF12E000
:1000E000A0E0B1E0E2EAF6E302C005900D92A4318F
:1000F000B107D9F725E0A4E1B2E001C01D92A03A12
:10010000B207E1F710E0C9E6D0E004C02197FE0194
:100110000E94F219C836D107C9F70E94AC140C949A
:100120004F1B0C940000E0917302F0917402309721
:1001300009F009940895862F642FE0917102F091DF
:100140007202309711F0A901099408950895862F3D
:10015000E0916902F0916A02309711F0BA010994B6
:100160000895862FE0916B02F0916C02309711F0A8
:10017000BA0109940895862FE0916502F091660214
:10018000309711F0BA0109940895862FE091670223
:10019000F0916802309711F0BA0109940895862F02
:1001A000E0916D02F0916E02309711F0BA0109945E
:1001B0000895862FE0916F02F0917002309711F050
:1001C000BA01099408959EEF980F923180F4E82FB8
:1001D000F0E0DF01A15ABA4F9C91913041F4EE0F4B
:1001E000FF1FED58FA4F608371830C943E0F089502
:1001F0008F929F92AF92BF92CF92DF92EF92FF9237
:100200000F931F93CF93DF93EB01843108F00AC162
:10021000082F10E0F801E15AFA4F9081933009F469
:1002200096C0943009F0FEC08250823108F087C039
:10023000F801E155FD4FE080F12C6701CC0CDD1C8D
:10024000603282E078070CF042C077FD05C0653B64
:10025000710524F4DB0104C0A0E001C0A4EBB0E010
:10026000F601EE0DFF1DE854FB4F818128E830E0D8
:100270004901881A910887FD9394880C991C880C71
:10028000991C092C000CAA08BB08828128E532E0E1
:10029000281B310987FD3395220F331F220F331F8F
:1002A000A901330F660B770B9A01AB0128193909A5
:1002B0004A095B090E94AD1924EB30E040E050E0B0
:1002C0000E948319820E931EA41EB51E01C04B010D
:1002D000F601EE0DFF1DE854FB4F20812C3078F520
:1002E000318188E890E0831B910937FD9395880F51
:1002F000991F880F991F8816990684F0828148E516
:1003000052E0481B510987FD5395440F551F440F78
:10031000551FC401481559050CF4CA010297880FEE
:10032000991F4FB7F89430E0F901EE0FFF1F2E0F21
:100330003F1FF901ED56FB4F928381834FBF000FA2
:10034000111FF801ED58FA4FD183C0836BC07B01B8
:10035000D82F833049F08BEF800F823028F087EF61
:10036000800F833008F057C061E08D2F0E948B0F03
:10037000E114F10411F460E005C08FEFE816F10418
:1003800029F461E08D2F0E943E0F45C0F801E4542E
:10039000FF4FE491E330F9F048F4E130B9F0E23096
:1003A000A1F584B5806284BDE8BC35C0E730E9F0D2
:1003B000E83019F1E43049F5809180008062809343
:1003C0008000F0928B00E0928A0025C084B580689E
:1003D00084BDE7BC20C0809180008068809380004D
:1003E000F0928900E092880016C08091B000806889
:1003F0008093B000E092B3000EC08091B0008062A4
:100400008093B000E092B40006C080E8E816F104E2
:100410000CF0B7CFB0CF000F111FF801ED58FA4F15
:10042000F182E082DF91CF911F910F91FF90EF90C9
:10043000DF90CF90BF90AF909F908F9008950097DE
:1004400021F0805C9F4F0C9414130895EF92FF925B
:100450000F931F93CF93DF93D82F8B01C42FF22ECE
:100460006F3F8FEF7807F9F081E080937E03D093A0
:10047000A00310927F031092A1038FE394E00E94E7
:100480009E0E8F2D0E945014809160029091610207
:100490008230910550F0880F991F880F991F05979A
:1004A0000197F1F702C000E010E080917D03811117
:1004B000FCCF9C2FC13208F090E281E080937D0355
:1004C00080937C032FEF20937B0310927A03290FF4
:1004D0002093790380935803809158032D2F220F86
:1004E000822B8093580380915703813061F41092DE
:1004F0005703809158038093BB008091BC0083FD1B
:10050000F8CF85EC01C085EE8093BC0080917D031F
:100510008130E1F380917A03891710F490917A0386
:10052000E9E5F3E0A8EEB2E080E0891721F021913F
:100530002D938F5FFACF1092090380930803EC2E5E
:10054000F12C90E0E816F9061CF48DE291E005C06C
:100550008E159F0524F48AE491E00E943714D0930D
:1005600020020093210200E212E0C8018052924072
:100570008E159F057CF40F5F1F4F909108038091AB
:100580000903981739F08FE394E00E94550EF801A3
:100590008183EBCFCE5F6C2F70E040E252E087E7C3
:1005A000DF91CF911F910F91FF90EF900C94EA1380
:1005B000A82FB0E0A155BD4F9C91292F30E0F90143
:1005C000EE0FFF1F2E0F3F1FF901E854FB4FE08194
:1005D000F0E09F01220F331FE20FF31FED56FB4F98
:1005E00080818F7B80838091AD02981306C0992310
:1005F00079F091509093AD020BC0882349F0E091BF
:10060000AE02EF5FE093AE02F0E0ED5EFD4F90834F
:100610008FEF8C930895DB019091AD029C30A8F58B
:100620003091AE02682F70E0332369F0E32FF0E0E1
:10063000ED5EFD4F8081FB01E155FD4F8083315020
:100640003093AE0207C0FB01E155FD4F90839F5FE1
:100650009093AD02FB01E155FD4F808190E09C013C
:10066000220F331F820F931F1A161B0634F4141621
:1006700015061CF49A01AD0104C020E639E040E201
:1006800052E088549B4F0C94901186E691E00C94B4
:1006900037148F929F92BF92CF92DF92EF92FF9288
:1006A0000F931F93CF93DF93C82ED12CE601C45232
:1006B000DB4FFE01ED57FF4F90819F3709F43DC19D
:1006C000963041F49091C602992321F0663071056D
:1006D00009F017C17B01182F0EEF080F0231F8F453
:1006E00064307105E1F0F601E155FD4F80818C30F9
:1006F000B0F490E0FC01EE0FFF1F8E0F9F1FFC0176
:10070000E854FB4F808190E0FC01EE0FFF1F8E0F3D
:100710009F1FFC01ED56FB4F808186FDF8C052EF14
:10072000B52EB10E85E08B1558F061E070E082E0E7
:10073000E816F10411F060E070E08B2D0E94D30BFD
:10074000023118F5E12FE695E695E695212F277001
:10075000F0E0EB58FD4FE114F10421F08BE0E816D6
:10076000F10449F481E090E001C0880F2A95EAF78E
:100770009081892B09C081E090E001C0880F2A9503
:10078000EAF780959081892380834601880C991C23
:10079000F401ED58FA4F118210828CE0E816F10452
:1007A00008F0A0C0F701EC5CFF4F0C94F21985E053
:1007B0008B1508F4C2C0023120F460E0812F0E9442
:1007C0008B0FCD57DF4F88818F3709F4B6C082E099
:1007D00087C0023108F0B1C060E0812F0E948B0F0A
:1007E000CD57DF4F88818F3709F4A7C01882A5C085
:1007F000023108F0A2C062E0812F0E948B0FCD571A
:10080000DF4F88818F3711F08BE08883F401ED583A
:10081000FA4F81E090E0918380838FC0023108F02D
:100820008CC060E0812F0E943E0F61E0812F0E940A
:100830008B0FCD57DF4F88818F3709F47EC081E061
:100840004FC0133049F08BEF810F823028F087EFD3
:10085000810F833008F071C061E0812F0E948B0FFF
:1008600061E0812F0E948B0F60E0812F0E943E0F7C
:10087000CD57DF4F88818F3709F45FC083E030C0E8
:10088000023108F05AC0CD57DF4F88818F3711F001
:1008900084E08883F601E155FD4F80818F3FD9F1D7
:1008A00090E0FC01EE0FFF1F8E0F9F1FFC01E8542C
:1008B000FB4F808190E0FC01EE0FFF1F8E0F9F1F0A
:1008C000FC01ED56FB4F808186FD37C024C01251DC
:1008D000123098F5CD57DF4F88818F3771F186E060
:1008E00088832BC08AE791E0DF91CF911F910F9110
:1008F000FF90EF90DF90CF90BF909F908F900C94DF
:1009000037141092C6029FEF90930001E3CE812F1F
:100910000E94D80204CF4FEF5FEF6FEF7FEF812F80
:10092000DF91CF911F910F91FF90EF90DF90CF90CB
:10093000BF909F908F900C940B03DF91CF911F91EC
:100940000F91FF90EF90DF90CF90BF909F908F908E
:100950000895DC0170E0FB01E855FF4FE491189623
:10096000EC9318976C567F4FFB018491E82FF0E0D1
:10097000EE0FFF1FE657FF4F8591949115969C93BC
:100980008E931497FB016491E62FF0E0EE0FFF1FAA
:10099000E058FF4F8591949117969C938E931697EC
:1009A00008953F924F925F926F927F928F929F92A3
:1009B000AF92BF92CF92DF92EF92FF920F931F936D
:1009C000CF93DF935C016901DA013C90232B19F48A
:1009D000CC24CA94DC2C7A012A01460E571EC0E0B2
:1009E000D0E000E010E087E0682E712CE414F504FC
:1009F00009F443C00C151D0508F067C04701F50157
:100A000080819181D7016D917D010C2E01C0660F0F
:100A10000A94EAF763296F77DC01ED91FC9101906C
:100A2000F081E02D09950F5F1F4FF401608170E0A8
:100A3000C3018C1B9D0B02C0759567958A95E2F7E3
:100A4000362E2196C730D10588F2C016D10699F00E
:100A5000D5018D919C91632D6F77DC01ED91FC9117
:100A60000190F081E02D09950F5F1F4F331C332457
:100A7000331C2797E7CF8601B9CF209731F10C15AA
:100A80001D0518F5F5018081918161E070E001C0DC
:100A9000660FCA95EAF761506321DC01ED91FC9184
:100AA0000190F081E02DDF91CF911F910F91FF9088
:100AB000EF90DF90CF90BF90AF909F908F907F90FE
:100AC0006F905F904F903F900994DF91CF911F916D
:100AD0000F91FF90EF90DF90CF90BF90AF909F90DD
:100AE0008F907F906F905F904F903F900895FF920E
:100AF0000F931F93CF93DF9300D0CDB7DEB7082FAE
:100B000010E0F801EB58FD4F9081F62EF9220D53BD
:100B10001D4F411104C0F8019081F91611F12F2DDC
:100B200030E03A832983A0911C05B0911D051097F0
:100B3000B1F0682F6F706069ED91FC911197019091
:100B4000F081E02DCD01099522E030E0AE014F5F4C
:100B50005F4F62E070E08CE195E00E94D104F80103
:100B6000F0820F900F90DF91CF911F910F91FF9026
:100B70000895DF92EF92FF920F931F93CF93DF932D
:100B8000FC01E058FF4FD080DD2009F45DC0EC018E
:100B9000C05CDF4FA881B981109709F455C0FC01F2
:100BA000EF57FF4F00811181F801F180E080ED9156
:100BB000FC9111970190F081E02D60EFCD01099536
:100BC00088819981DC01ED91FC910190F081E02D0B
:100BD00069E7099588819981DC01ED91FC9101908B
:100BE000F081E02D6E2D099588819981DC01ED91D0
:100BF000FC910190F081E02D6F2D09957801B2E014
:100C0000EB0EF11C0D0D111DE016F10661F020E058
:100C100030E0A70161E070E0CE010E94D104EFEF67
:100C2000EE1AFE0AF1CF88819981DC01ED91FC91E9
:100C30000190F081E02D67EFDF91CF911F910F912F
:100C4000FF90EF90DF900994DF91CF911F910F916A
:100C5000FF90EF90DF900895009711F00C94B90584
:100C600008957F928F929F92AF92BF92CF92DF9220
:100C7000EF92FF920F931F93CF93DF93EA018F368A
:100C800009F4C6C1F62E803778F4893609F490C28B
:100C900020F4813509F49EC251C58B3609F4E2C1B6
:100CA0008D3609F435C24AC5863761F020F48037A5
:100CB00009F44BC143C5883709F4F2C08A3709F4F7
:100CC00092C13CC52981922F987125FF03C08BE802
:100CD00091E062C0888131E026FB222720F923279A
:100CE000983069F160F4911129C530937E038093A7
:100CF000A00310927F031092A10312E007C090316D
:100D000009F444C0983109F47EC018C51F1578F461
:100D1000FE01E10FF11D618167956627679580816E
:100D2000680F8FE394E00E949E0E1E5FEFCF81E07C
:100D30000E94501483E191E00197F1F7FFC44B81C9
:100D40006A8136E0F3120DC070E090E8499F600DB3
:100D5000711D11244D814795442747959C81490F6A
:100D600006C0479544274795460F6FEF7FEFDF9109
:100D7000CF911F910F91FF90EF90DF90CF90BF9098
:100D8000AF909F908F907F900C942602E09100018D
:100D9000E7308CF08BEA91E0DF91CF911F910F91BA
:100DA000FF90EF90DF90CF90BF90AF909F908F908B
:100DB0007F900C9437149B813A81F6E06F130EC03C
:100DC000632F70E030E8939F600D711D11249D81A9
:100DD0009795992797954C81940F06C097959927D9
:100DE0009795930F6FEF7FEFEF5FE093000145E082
:100DF000E402F0011124E158FD4F80837283618386
:100E0000938324839BC42091000112163CF490E04C
:100E1000622F022E000C770B35E00FC08FEF80930E
:100E200000018CC4349FF001359FF00D1124E1586E
:100E3000FD4F4081841739F09F5F492F50E06417C0
:100E4000750784F790E085E022C09830F8F4FA0145
:100E500031968E9FD0018F9FB00D1124A158BD4FA8
:100E60003C91849FF001859FF00D1124E158FD4FC6
:100E7000308311964D915C91129752834183139662
:100E80003C911397338314963C9134839F5F492F91
:100E900050E064177507CCF62150209300014EC432
:100EA0002981888190E0E0E82E9F800D911D11241A
:100EB000009721F090936102809360028091C602B6
:100EC00081113CC4C0E08EEE8C0F823028F466E0C5
:100ED00070E08C2F0E944903CF5FC431A1F781E0FD
:100EE0008093C602109209031092080310927F03A8
:100EF0001092A10310927D0380937C0310925703FC
:100F000061E082E10E943E0F61E083E10E943E0FBA
:100F10008091B9008E7F8093B9008091B9008D7F58
:100F20008093B90088E48093B80085E48093BC0086
:100F300083E49EE090930B0380930A0384E49EE095
:100F400090930D0380930C03F9C3F4E0F61708F0B7
:100F5000F5C318818EEF810F823108F0EFC309814C
:100F6000EA80FB80CC81E12FF0E0E155FD4F8081EC
:100F70008C30B0F490E0FC01EE0FFF1F8E0F9F1F2E
:100F8000FC01E854FB4F808190E0FC01EE0FFF1F55
:100F90008E0F9F1FFC01ED56FB4F808186FDB3C372
:100FA0004F2D50E020E8C29F400D511D1124602FAD
:100FB00070E030E8E39E600D711D1124812F0E94C6
:100FC0000B0364E070E0812FDF91CF911F910F91AF
:100FD000FF90EF90DF90CF90BF90AF909F908F9059
:100FE0007F900C94490341E0461708F0A7C329817C
:100FF000888190E0E0E82E9F800D911D11240097DC
:1010000011F481E090E0909302018093010196C376
:10101000623008F493C3898190E0623091F02A81B4
:10102000F0E82F9F90011124822B932B633049F01D
:101030002B8130E030E4239F302D22271124822B96
:10104000932BBC018881DF91CF911F910F91FF906D
:10105000EF90DF90CF90BF90AF909F908F907F9058
:101060000C94F80080EF0E9443148CE60E94431415
:10107000CEEF84EF8C0F863038F482E00E94431468
:101080008AE00E94431409C0C13039F483E00E9411
:10109000431488E00E94431408C08DEF8C0F823007
:1010A000A8F389EF8C0F833088F3C23130F484E0E9
:1010B0000E9443148EE00E94431480EF8C0F823014
:1010C00030F486E00E94431481E00E9443148FE7CD
:1010D0000E944314CF5FC23151F1C23150F680E01B
:1010E0000E94431481E00E9443148BE00E94431449
:1010F00081E00E94431481E00E94431481E00E9439
:10110000431481E50E94431481E00E944314B1CF4F
:10111000662309F413C3C88180EF0E9443148EE64E
:101120000E9443148C2F0E944314C43180F087EF37
:10113000DF91CF911F910F91FF90EF90DF90CF90B3
:10114000BF90AF909F908F907F900C944314D0E00D
:10115000FE01E15AFA4F80810E944314CC0FDD1F3B
:101160008E010D581A4FF80180818F770E94431429
:10117000F801808191819C012078232B39F0880F20
:10118000892F881F990B8F770E944314CD58DA4F0F
:10119000888199819C012227307C232B41F2990F71
:1011A000880B990F982F881F8F770E944314BFCF09
:1011B00080EF0E9443148AE60E944314C2EFC630B7
:1011C00010F08FE701C08C2F0E944314CF5FC63010
:1011D000B1F7ADCF662309F4B1C29881892F8F7022
:1011E000833009F4D1C030F4813009F422C1823057
:1011F00041F0A4C2843009F469C0853009F4D5C136
:101200009DC280916402811199C280916302811113
:1012100095C281E08093640240E019E08091E00291
:10122000481708F050C0842F90E0BC0168537D4FF0
:10123000FB012081222309F442C0E091E402F091F5
:10124000E502189FE001199FD00D1124C55BDB4F0B
:10125000AE81BF818C919885982B9C93AC81BD8188
:101260005885888199819C01220F331F280F391FCF
:101270008A819B81EC01CC0FDD1F8C0F9D1FE80F35
:10128000F91F8C91952F90959823852B5FB7F89433
:101290002E0F3F1F2E173F0781F0C191D8E08C938E
:1012A00000C0C7FF9C93CC0F00C000C000C008F472
:1012B0009C9300C0DA9599F7EDCF5FBF7894FB015E
:1012C00010824F5FABCF1092640238C280916302EC
:1012D000811134C28B8190E0A0E0B0E0AC01BD018F
:1012E0001EE0440F551F661F771F1A95D1F79C818A
:1012F000892F90E0A0E0B0E005E1880F991FAA1FB8
:10130000BB1F0A95D1F7840F951FA61FB71F298110
:10131000820F911DA11DB11DCA80D12CE12CF12C91
:1013200027E0CC0CDD1CEE1CFF1C2A95D1F7C80E63
:10133000D91EEA1EFB1EC114D104E104F10419F008
:10134000C0E0D0E012C04091E6025091E702CA012D
:10135000880F991F480F591F60E070E08091E402E8
:101360009091E5020E94391BB8C18091E6029091EC
:10137000E702C817D90708F0B0C1B701A601CE012E
:101380000E94D1122196F1CF809163028111D6C1C2
:101390008A81098110E0F0E88F9F000D111D112452
:1013A0008D8190E0A0E0B0E0AC01BD01EEE0440F23
:1013B000551F661F771FEA95D1F79E81892F90E010
:1013C000A0E0B0E0F5E1880F991FAA1FBB1FFA95B6
:1013D000D1F7840F951FA61FB71F2B81820F911D78
:1013E000A11DB11D4C8150E060E070E0C7E0440FEA
:1013F000551F661F771FCA95D1F7480F591F6A1FDF
:101400007B1FC8010E94D1124091E002A0EDB2E022
:1014100080E090E0841708F091C1FC012D913D918E
:10142000019602171307B0F7E853FD4F81E0808360
:1014300085C1913009F082C122E0261708F07EC1F3
:10144000909062020E940213911013C06BEAF69E04
:10145000B12C1124B69440EDC42E42E0D42E5BE4AE
:10146000E52E54E0F52EA12C8824839462E0762E9C
:1014700058C03BE4C32E34E0D32E10E0612FC601E8
:101480000E94A9041F5F39E0C30ED11C1830B1F7C8
:10149000DDCF898190E025E0959587952A95E1F744
:1014A0008130910509F445C08230910509F446C0A8
:1014B000892B31F41092E2028092E3027092E102F1
:1014C0008B810A8110E040E8849F000D111D1124DA
:1014D000F70111830083AA20C1F1F60132978081C0
:1014E00091819801280F391FF601219331936F01E3
:1014F000F701938382838091E6029091E702080FBF
:10150000191F1093E7020093E6028091E0028F5FBB
:101510008093E002A394F9E0EF0EF11C2396BA1435
:10152000B9F09110B6CF69816F71C7010E94A9040B
:10153000B0CF1092E3028092E202C0CF1092E1029B
:101540008092E3027092E202BBCF80E090E0C9CFCC
:101550008091E4029091E502009731F00E94901A88
:101560001092E7021092E6020115110509F4E6C097
:10157000E801CC0FDD1FC00FD11FCE010E94F8196A
:101580009093E5028093E402009751F0AE0160E091
:1015900070E00E94391B1093E7020093E602CEC070
:1015A0001092E7021092E602C9C08981982F9F71BC
:1015B00009F493C0282F2072C22EC92FCC0FC90F57
:1015C00021E020936302D0E0E92EF12C382F307413
:1015D000D32E86FF28C0CE010E94F8198C010097F7
:1015E00029F0AE0160E070E00E94391BCC2039F098
:1015F0006091E6027091E7026E197F0902C060E017
:1016000070E0CB01880F991F680F791F8091E40269
:101610009091E502680F791FAE01C8010E941E1B60
:10162000C11075C019C0CC20B9F08091E40290912E
:10163000E5024091E6025091E7024E195F099A01D6
:10164000220F331F420F531FBC018C0F9D1F0E949E
:10165000271B80E090E02FC08091E4029091E5028A
:101660004091E6025091E7024E195F099A01220F5C
:10167000331F420F531FBC016C0F7D1F0E94271B9D
:101680008091E6029091E7028E199F09DD2099F082
:101690009C01220F331F820F931F2091E40230918F
:1016A000E502AE01B801820F931F0E941E1BC80104
:1016B0000E94901A10C09C01220F331F820F931FAB
:1016C0002091E4023091E502AE0160E070E0820F0B
:1016D000931F0E94391B109263024091E00250E078
:1016E00061E070E088EC92E0DF91CF911F910F9163
:1016F000FF90EF90DF90CF90BF90AF909F908F9032
:101700007F900C94391B812F0E94D80249CC809184
:10171000E4029091E5024091E6025091E7024E19F1
:101720005F099A01220F331F420F531FBC018C0F18
:101730009D1F0E94271B80E090E0AACFDF91CF91F0
:101740001F910F91FF90EF90DF90CF90BF90AF90DF
:101750009F908F907F900895833020F5282F30E060
:10176000F901E858FD4F6083672BE1F0F901EB5870
:10177000FD4F9081811103C069B16C7F0FC0813032
:1017800049F463B136B16F7340E4349F9001112482
:10179000622B04C066B16C7366956695692341E05F
:1017A0000C9477050895CF93863080F54091A70279
:1017B0005091A80221E030E0672B81F4B90102C00A
:1017C000660F771F8A95E2F7CB0180959095842369
:1017D00095239093A8028093A70218C0082E02C0F8
:1017E000220F331F0A94E2F7242B352B3093A802E3
:1017F0002093A7029091C702911108C0C82F0E94A0
:10180000C70FBC018C2FCF910C948613CF910895F4
:101810008F929F92AF92BF92CF92DF92EF92FF9200
:101820000F931F93CF93DF93833008F084C0982FDA
:10183000990F990F990F58E0952E990E94E19915EB
:1018400010F444E1942E8B01D82FC82ECC0CCC0C74
:10185000CC0CC0E0882483945B01BB24C91430F510
:101860008EEF8C0D8231F8F44C2D50E0FA01E15AE4
:10187000FA4F20812230B8F4882D90E08A219B21F4
:10188000DD24D394009709F4D12C7A01EE0CFF1CCF
:10189000213009F040C0C829F701ED58FA4F8D2DCD
:1018A00090E091838083880CC394D8CFD11108C075
:1018B000F8946BB106270C7FC023C627CBB929C08B
:1018C000D130D1F40C23F89495B18C2F8F7380957F
:1018D0008923902F9F73892B85B998B1C295C6959E
:1018E000C695C370C0958C2F8923029506950695E1
:1018F0000370C02FC82B0CC0CF70F89488B16C2F28
:10190000660F660F60956823C023CC0FCC0FC62BE3
:10191000C8B9789410C0892B09F4BECFF701ED58EF
:10192000FA4F80819181019709F4B6CF62E08C2D46
:101930000E948B0FB1CFDF91CF911F910F91FF903C
:10194000EF90DF90CF90BF90AF909F908F900895D1
:10195000CF92DF92EF92FF920F931F93CF93DF937B
:101960006C017A018B01C0E0D0E0CE15DF0581F07B
:10197000D8016D918D01D601ED91FC910190F0811E
:10198000E02DC6010995892B11F02196EECF7E013D
:10199000C701DF91CF911F910F91FF90EF90DF90E2
:1019A000CF900895FC01538D448D252F30E0842F76
:1019B00090E0821B930B541710F0CF960895019777
:1019C0000895FC01918D828D981761F0828DDF0161
:1019D000A80FB11D5D968C91928D9F5F9F73928F22
:1019E00090E008958FEF9FEF0895FC01918D828D17
:1019F000981731F0828DE80FF11D858D90E00895E4
:101A00008FEF9FEF08950E94191B82EA93E00E94D6
:101A1000D60D21E0892B09F420E0822F0895EF9262
:101A2000FF920F931F93CF93DF93EC0181E0888F98
:101A30009B8D8C8D981305C0E889F989808185FD7F
:101A400026C0F62E0B8D10E00F5F1F4F0F7311276E
:101A5000E02E8C8DE8120CC00FB607FCFACFE88997
:101A6000F989808185FFF5CFCE010E941C0FF1CF4F
:101A70008B8DFE01E80FF11DE35AFF4FF0829FB7F7
:101A8000F8940B8FEA89FB89808180620AC09FB736
:101A9000F894EE89FF896083E889F98980818370F1
:101AA000806480839FBF81E090E0DF91CF911F91A0
:101AB0000F91FF90EF900895CF93DF93EC01888D05
:101AC0008823C9F0EA89FB89808185FD05C0A88942
:101AD000B9898C9186FD0FC00FB607FCF5CF8081C8
:101AE00085FFF2CFA889B9898C9185FFEDCFCE0112
:101AF0000E941C0FE7CFDF91CF9108951F920F92A4
:101B00000FB60F9211242F933F934F935F936F93D0
:101B10007F938F939F93AF93BF93EF93FF9382EA4B
:101B200093E00E941C0FFF91EF91BF91AF919F91A5
:101B30008F917F916F915F914F913F912F910F9076
:101B40000FBE0F901F9018951F920F920FB60F9215
:101B500011242F938F939F93EF93FF93E091B20300
:101B6000F091B3038081E091B803F091B90382FD55
:101B700012C090818091BB038F5F8F732091BC0353
:101B8000821751F0E091BB03F0E0EE55FC4F958FCA
:101B90008093BB0301C08081FF91EF919F918F9152
:101BA0002F910F900FBE0F901F901895FC01918DF3
:101BB000228D892F90E0805C9F4F821B91098F734B
:101BC0009927089580E090E0892B29F00E94050D67
:101BD00081110C94000008953FB7F894809153034D
:101BE00090915403A0915503B091560326B5A89B3C
:101BF00005C02F3F19F00196A11DB11D3FBFBA2F9F
:101C0000A92F982F8827820F911DA11DB11DBC01FE
:101C1000CD0142E0660F771F881F991F4A95D1F7C3
:101C2000089585ED8093BC008091BC0084FDFCCFBD
:101C300010927D03089540912F03262F30E0240F4A
:101C4000311D21323105DCF420917D032430C9F4AB
:101C5000FC0180E090E0861758F430912F03219129
:101C6000DC01A15FBC4FA30FB11D2C930196F3CFF4
:101C700080912F03680F60932F0380E0089581E027
:101C8000089582E00895089508950895E091090364
:101C900080910803E81730F4F0E0E851FD4F8081AF
:101CA00090E008958FEF9FEF089590910903809140
:101CB0000803981750F4E92FF0E0E851FD4F208118
:101CC00030E09F5F9093090302C02FEF3FEFC901FF
:101CD00008958091080390E020910903821B9109E7
:101CE0000895CF92DF92EF92FF920F931F93CF93BD
:101CF000DF937C01CB018A0120917E03222389F0AE
:101D0000EB016B01C40ED51ECC15DD0569F06991A0
:101D1000D701ED91FC910190F081E02DC70109956B
:101D2000F3CF642F0E941B0EC801DF91CF911F914A
:101D30000F91FF90EF90DF90CF900895CF93DF93B6
:101D40001F92CDB7DEB7698320917E032223D1F0A5
:101D50002091A103203240F021E030E0FC013383E8
:101D6000228380E090E015C080917F03E82FF0E0AF
:101D7000E058FC4F998190838F5F80937F0380931D
:101D8000A10305C061E0CE0101960E941B0E81E017
:101D900090E00F90DF91CF910895089580E090E05A
:101DA00008950F931F93CF93DF9381E08093C70231
:101DB0008091C602882329F01092C6028FEF80938B
:101DC000000110927802109275021092C3021092D4
:101DD0007902109276021092C40210927A02109246
:101DE00077021092C5020FEA12E0C0E0DFEF82EF47
:101DF0008C0F863018F462E070E006C08EEF8C0F16
:101E0000823128F461E070E08C2F0E944903F801D0
:101E1000D1938F01CF5FC43151F71092A802109275
:101E2000A7021092AE021092AD021092C702DF918B
:101E3000CF911F910F910895FC01848DDF01A80FB0
:101E4000B11DA35ABF4F2C91848D90E001968F73E2
:101E50009927848FA689B7892C93A089B1898C9101
:101E6000837080648C93938D848D981306C0028850
:101E7000F389E02D80818F7D8083089590E0FC01BF
:101E8000E454FF4F2491FC01E855FF4F3491FC01CD
:101E9000EC56FF4FE491EE2309F43CC0222339F1C4
:101EA000233091F038F42130A9F0223001F584B5C7
:101EB0008F7D12C0273091F02830A1F02430B9F482
:101EC000809180008F7D03C0809180008F77809308
:101ED00080000DC084B58F7784BD09C08091B000AB
:101EE0008F7703C08091B0008F7D8093B000F0E0C9
:101EF000EE0FFF1FE657FF4FA591B4919FB7F894DF
:101F0000611104C08C913095382302C0EC913E2BB6
:101F10003C939FBF0895CF93DF9390E0FC01E85579
:101F2000FF4F2491FC01EC56FF4F8491882361F10F
:101F300090E0880F991FFC01E058FF4FC591D491A4
:101F4000FC01E657FF4FA591B491611109C09FB7FD
:101F5000F8948881209582238883EC912E230BC0EE
:101F6000623061F49FB7F8948881322F30958323D3
:101F70008883EC912E2B2C939FBF06C08FB7F894CB
:101F8000E8812E2B28838FBFDF91CF9108958E306B
:101F900008F08E508770806480937C0080917A0076
:101FA000806480937A0080917A0086FDFCCF8091D6
:101FB00078002091790090E0922B08958F929F9263
:101FC000AF92BF92CF92DF92EF92FF926B017C01B2
:101FD0000E94EC0D4B015C01C114D104E104F10439
:101FE000F1F00E94EC0DDC01CB0188199909AA09D6
:101FF000BB09883E9340A105B10570F321E0C21AE8
:10200000D108E108F10888EE880E83E0981EA11C33
:10201000B11CC114D104E104F10419F7DDCFFF9024
:10202000EF90DF90CF90BF90AF909F908F900895EA
:102030001F920F920FB60F9211242F933F938F93FD
:102040009F93AF93BF9380917B0290917C02A0916C
:102050007D02B0917E023091520323E0230F2D3791
:1020600020F40196A11DB11D05C026E8230F02969C
:10207000A11DB11D2093520380937B0290937C029B
:10208000A0937D02B0937E028091530390915403FC
:10209000A0915503B09156030196A11DB11D8093E7
:1020A000530390935403A0935503B0935603BF91E9
:1020B000AF919F918F913F912F910F900FBE0F90F5
:1020C0001F9018951F920F920FB60F9211242F9305
:1020D0003F934F935F936F937F938F939F93AF93B0
:1020E000BF93EF93FF938091B900887F803609F406
:1020F0009CC068F5883209F45BC090F4803109F423
:1021000054C038F4882309F4F6C0883009F44DC06F
:10211000F6C0883109F44CC0803209F45DC0EFC0CC
:10212000803409F468C048F4803309F455C088331A
:1021300009F0E5C080937B03D8C0803509F44FC017
:10214000883509F45DC0883409F0D9C0D6C0883913
:1021500009F4C7C0A8F4883709F467C038F4883692
:1021600009F463C0803709F460C0C9C0883809F435
:10217000B8C0803909F45FC0803809F0C0C05BC0C6
:10218000803B09F486C038F4803A09F466C0883A86
:1021900009F47FC0B4C0803C09F4A7C0883C09F4AE
:1021A000A4C0883B09F48AC0AAC08091580310C01B
:1021B00090917A0380917903981770F5E0917A03F2
:1021C00081E08E0F80937A03F0E0E75AFC4F808124
:1021D0008093BB0085EC86C080937B038EC0E0912A
:1021E0007A0381E08E0F80937A038091BB00F0E048
:1021F000E75AFC4F808390917A03809179036EC0F7
:10220000E0917A0381E08E0F80937A038091BB0086
:10221000F0E0E75AFC4F808380917C0381116DC010
:1022200081E08093570384EA61C083E080937D035B
:1022300010925103CFCF80915103803208F051C0EA
:10224000E091510381E08E0F809351038091BB0098
:10225000F0E0EF5CFC4F8083BDCF85EC8093BC0049
:1022600010927D0380915103803230F4E09151034C
:10227000F0E0EF5CFC4F10826091510370E0E09160
:102280000C03F0910D0381E393E009951092510343
:1022900036C084E080937D031092300310922F03A8
:1022A000E0910A03F0910B03099580912F038111AE
:1022B00005C081E080932F0310920F03E09130035B
:1022C00081E08E0F80933003F0E0E15FFC4F80816E
:1022D0008093BB009091300380912F03981708F4EE
:1022E00079CF85E88093BC000AC085EC8093BC0060
:1022F00010927D0304C010927B030E94110EFF9187
:10230000EF91BF91AF919F918F917F916F915F916D
:102310004F913F912F910F900FBE0F901F901895E6
:10232000DF92EF92FF920F931F93CF93DF93EC0115
:10233000D62E7A01890188818C3008F068C061E06E
:102340008D2D0E948B0F8881E82FF0E09F01220FD6
:10235000331FE20FF31FED56FB4F9D2D9F7320811E
:10236000207CD22ED92AD08220E232E02E193F09D9
:1023700037FF02C02D5F3F4F35952795359527953F
:10238000298320E639E0201B310B37FF02C02D5F87
:102390003F4F35952795359527952A836CE00E9408
:1023A000E6199CE0899FB001112440E050E09B01B8
:1023B000240F351FF901EE0FFF1F2E0F3F1FF901EC
:1023C000ED56FB4F908196FD16C04F5F5F4F4C302E
:1023D000510569F781110FC01092800082E080934F
:1023E00081001092850010928400B19A80916F0054
:1023F000826080936F00E881F0E0CF01880F991F21
:10240000E80FF91FED56FB4F80818064808388813F
:10241000DF91CF911F910F91FF90EF90DF90089582
:102420001F920F920FB60F9211242F933F934F9349
:102430005F936F937F938F939F93AF93BF93EF932C
:10244000FF9380910E0387FF05C0109285001092C4
:1024500084001BC020910E03022E000C330B8091D0
:10246000B70490E02817390784F480910E03082EF2
:10247000000C990BFC01EE0FFF1F8E0F9F1FFC013C
:10248000ED56FB4F808186FD15C080910E038F5F56
:1024900080930E0320910E03022E000C330B8091CB
:1024A000B70490E028173907C4F480910E038C30EC
:1024B00064F113C080910E03082E000C990BFC01EF
:1024C000EE0FFF1F8E0F9F1FFC01ED56FB4F80810B
:1024D00060E08F730E943E0FD8CF8091840090916E
:1024E0008500049680349C4918F480E49CE905C07A
:1024F0008091840090918500049690938900809348
:1025000088008FEF80930E033BC0209184003091B0
:10251000850080910E03082E000C990BFC01EE0F34
:10252000FF1F8E0F9F1FFC01ED56FB4F8181928193
:10253000820F931F909389008093880080910E03EF
:10254000082E000C990BFC01EE0FFF1F8E0F9F1F32
:10255000FC01ED56FB4F808186FF12C080910E0377
:10256000082E000C990BFC01EE0FFF1F8E0F9F1F12
:10257000FC01ED56FB4F808161E08F730E943E0F9E
:10258000FF91EF91BF91AF919F918F917F916F914B
:102590005F914F913F912F910F900FBE0F901F9021
:1025A00018952091E6023091E7028217930740F5D3
:1025B000FC01EE0FFF1F8E0F9F1F2091E302A091E1
:1025C000E402B091E502A80FB91FA20FB11D6C93F0
:1025D0002091E202A091E402B091E502A80FB91F98
:1025E000A20FB11D5C932091E102E091E402F09111
:1025F000E502E80FF91FE20FF11D408380E0089526
:1026000081E008951092E0021092E7021092E60233
:10261000E0EDF2E0A8ECB2E0119211921D9282E09E
:10262000E03EF807C9F70895CF93DF93FC01A0813E
:10263000B181109701F1EC01ED91FC91119701909E
:10264000F081E02D69EFCD01099588819981DC0148
:10265000ED91FC910190F081E02D62E00995888177
:102660009981DC01ED91FC910190F081E02D65E014
:10267000DF91CF910994DF91CF9108951F93CF936C
:10268000DF93182FEB0180912105909122056817A7
:102690007907A8F0E0914E05F0914F0581E0309761
:1026A000C1F080931E0580913A0590913B050995F4
:1026B0008091210590912205C817D90748F480918F
:1026C0001F0590912005C80FD91F188380E001C015
:1026D00081E0DF91CF911F910895AC01FB0180E073
:1026E00090E09C01220F331F2417350770F4DB01A3
:1026F0002C91208311963C91379533273795232BC6
:10270000219301966E5F7F4FECCF08951F93CF9377
:10271000DF9300D0CDB7DEB7182F7A83698380911D
:102720001C0590911D05009709F44EC0DC01ED9148
:10273000FC911031A8F46115704490F4612F606E23
:102740000190F081E02D099522E030E0AE014F5F6D
:102750005F4F62E070E08CE195E00E94D10434C0EC
:102760000190F081E02D60EF099580911C0590911A
:102770001D05DC01ED91FC910190F081E02D6FE6EB
:10278000099580911C0590911D05DC01ED91FC914E
:102790000190F081E02D612F099522E030E0AE013B
:1027A0004F5F5F4F62E070E08CE195E00E94D104E2
:1027B00080911C0590911D05DC01ED91FC9101902B
:1027C000F081E02D67EF09950F900F90DF91CF9189
:1027D0001F910895EF92FF920F931F93CF93DF9372
:1027E000C82F80911C0590911D050097C9F17A01B1
:1027F0008B01DC01ED91FC910190F081E02D60EF07
:10280000099580911C0590911D05DC01ED91FC91CD
:102810000190F081E02D6C2F0995E7010E0D1F1D31
:10282000C017D10759F020E030E0AE0161E070E060
:102830008CE195E00E94D1042196F2CF80911C0595
:1028400090911D05DC01ED91FC910190F081E02D4E
:1028500067EFDF91CF911F910F91FF90EF90099457
:10286000DF91CF911F910F91FF90EF900895FC01A0
:1028700001900020E9F73197BF01681B790BAC018B
:1028800081E70C94EA13A0915A05B0915B05ED9194
:10289000FC9111970190F081E02D682FCD010994F2
:1028A000282F3091A103313208F04AC080917D0376
:1028B0008111FCCF9091A00342E040937D032093CF
:1028C0007C032FEF20937B0310927A0330937903DC
:1028D000E0E8F3E0A9E5B3E020E0321721F0419110
:1028E0004D932F5FFACF1092580320915803990F00
:1028F000922B9093580390915703913061F410926A
:102900005703909158039093BB009091BC0093FDA6
:10291000F8CF95EC01C095EE9093BC0090917D03AB
:102920009230E1F390917B039F3F79F080917B039C
:10293000803241F080917B03803331F084E005C028
:1029400081E003C082E001C083E010927F03109217
:10295000A10310927E030895789484B5826084BDAB
:1029600084B5816084BD85B5826085BD85B5816093
:1029700085BD80916E00816080936E001092810011
:1029800080918100826080938100809181008160CC
:10299000809381008091800081608093800080918D
:1029A000B10084608093B1008091B0008160809319
:1029B000B00080917A00846080937A0080917A00E0
:1029C000826080937A0080917A00816080937A009F
:1029D00080917A00806880937A001092C10088E12B
:1029E00080935C0580915D0590915E050E94901A30
:1029F000C0915C05D0E0CE0101960E94F819909339
:102A00005E0580935D05FC01EC0FFD1F108212E056
:102A1000DC011C9325E011962C93AE014250510924
:102A20006DEF71E002960E94401B88EF90E090935A
:102A3000700280936F0288E09CE090936E02809316
:102A40006D0283ED9BE090936C0280936B028CEAA5
:102A50009BE090936A028093690289E493E09093EB
:102A600068028093670283EE90E090936602809301
:102A7000650281E396E0909372028093710281ED8A
:102A80009EE09093740280937302E091B203F09100
:102A9000B3031083E091B203F091B3031082E0918D
:102AA000AE03F091AF031082E091B003F091B10357
:102AB00080E180831092BA03E091B603F091B703EE
:102AC00086E08083E091B403F091B503808180615A
:102AD0008083E091B403F091B503808188608083A6
:102AE000E091B403F091B503808180688083E09128
:102AF000B403F091B50380818F7D808380919B0525
:102B0000811140C061E08DE00E948B0FC0E062ED5A
:102B100070E080E090E00E94DE0F61E08DE00E94B6
:102B20003E0F68E270E080E090E00E94DE0F60E01F
:102B30008DE00E943E0FCF5FC23049F76AEF70E030
:102B400080E090E00E94DE0FC0E062ED70E080E087
:102B500090E00E94DE0F61E08DE00E943E0F68E28F
:102B600070E080E090E00E94DE0F60E08DE00E9467
:102B70003E0FCF5FC53049F76DE770E080E090E031
:102B80000E94DE0F82EA93E090935B0580935A05E2
:102B900090931D0580931C058CE195E00E94141311
:102BA0008CED94E00E94B9050E94D10E0E940213A0
:102BB000EE24E394C2E0D0E001E010E025E0D22E64
:102BC00080917802882349F069B180917502682369
:102BD0006C7F40E080E00E94770580917902882335
:102BE00081F083B196B1682F6F73B0E49B9FC001F1
:102BF0001124862B60917602682340E081E00E94D8
:102C0000770580917A02882359F066B16C736695D6
:102C1000669580917702682340E082E00E94770504
:102C200080915A0590915B05DC01ED91FC91008447
:102C3000F185E02D0995892B09F4CEC180915A05C3
:102C400090915B05DC01ED91FC910284F385E02D10
:102C500009959C018F3FBFEF9B0711F3982F80913F
:102C60002705882309F492C0973F09F07EC010928F
:102C70002705A0911F05B09120056C916137C1F126
:102C8000693709F05CC0E0915405F0915505309723
:102C900039F280912805909129058330910538F407
:102CA00020E030E040E050E060E070E01BC0BD019B
:102CB0006D5F7F4F03970E946D13BC016D5F7F4F67
:102CC00080E00E943E13E0911F05F09120059F01D6
:102CD0002D5F3F4F428150E0618170E0E0915405EB
:102CE000F09155058091360590913705099598CF5B
:102CF0008091500590915105892B09F491CFBD0128
:102D00006F5F7F4F809128059091290501970E9460
:102D10006D13BC016F5F7F4F80E00E943E13609196
:102D20001F05709120056F5F7F4FE0915005F09176
:102D3000510580913C0590913D05099571CFE09139
:102D40005205F0915305309709F46ACF9D012F5F2A
:102D50003F4F4091280550912905415051098091DC
:102D60003E0590913F0509955BCF609128057091D4
:102D70002905822F0E943E138091280590912905F4
:102D8000019690932905809328054ACF60912505E7
:102D9000709126056115710509F4AFC027FDADC01E
:102DA000615071097093260560932505822F0E945A
:102DB0003E138091250590912605892B09F030CF8F
:102DC00080912305882309F42BCF803D09F47FC02F
:102DD00030F4803939F1803C09F466C08BC0843FFF
:102DE000E1F1853F09F44DC0803E09F083C0E091D8
:102DF0004205F0914305309709F47CC0A0911F056E
:102E0000B09120058C9111964C9150E020E8829F62
:102E1000400D511D11246091240580912A05909147
:102E20002B0567C0E0914405F0914505309709F402
:102E300061C0A0911F05B09120058C9111964C9115
:102E400050E090E8899F400D511D112460912405A8
:102E500080912C0590912D054CC0E0914A05F09190
:102E60004B05309709F446C0A0911F05B09120058D
:102E70004C9150E011966C91809132059091330500
:102E800038C0E0914C05F0914D05309799F1A09133
:102E90001F05B09120054C9150E011966C918091E6
:102EA00034059091350525C0E0914605F091470520
:102EB000309701F1A0911F05B09120054C9150E091
:102EC0006091240580912E0590912F0512C0E0910C
:102ED0004805F0914905309769F0A0911F05B09120
:102EE00020054C9150E0609124058091300590912F
:102EF000310509951092230593CE903F30F4822F2F
:102F00008F7080932405922F907F903F79F158F431
:102F1000903C29F118F49039E9F082CE903DF9F017
:102F2000903EC1F07DCE993F09F449C028F48CE071
:102F3000890F823078F074CE9F3F09F071CE1092E5
:102F4000260510922505109223051092240580E095
:102F500090E013C0D0932605C093250504C01093BC
:102F6000260500932505909323055ACEE092270568
:102F7000109229051092280553CE209121053091F9
:102F800022058217930748F4E0911F05F091200570
:102F9000E80FF91F10820196F0CF109227051092CA
:102FA000290510922805E0915805F09159053097B0
:102FB00009F436CE80914005909141050BC0E09117
:102FC0005605F0915705309709F42ACE80913805BF
:102FD00090913905099524CE8FB7F89440917B02E2
:102FE00050917C0260917D0270917E028FBF809033
:102FF000A9029090AA02A090AB02B090AC022091DE
:10300000010130910201C901A0E0B0E0481959095D
:103010006A097B0984179507A607B70708F052C00D
:10302000880D991DAA1DBB1D8093A9029093AA0229
:10303000A093AB02B093AC028FE5A82E85E0B82E2A
:1030400092EFF92EA5E0AF15B8F0F501808182303E
:1030500099F48091A7029091A8020F2C02C0959537
:1030600087950A94E2F780FF07C08F2D0E94C70F53
:10307000BC018F2D0E948613F394FFEFAF1ABF0A95
:1030800026E0F212DFCF8091000187FD1BC0F12CFA
:103090002F2D30E080910001082E000C990B821733
:1030A000930784F0D29EF001D39EF00D1124E158D5
:1030B000FD4F618172812481438180810E942602BB
:1030C000F394E6CF0E94E20D7BCD1092A5031092FF
:1030D000A40388EE93E0A0E0B0E08093A603909371
:1030E000A703A093A803B093A9032DE031E0309388
:1030F000A3032093A20325EC30E03093AF03209389
:10310000AE0324EC30E03093B1032093B00320EC05
:1031100030E03093B3032093B20321EC30E03093DE
:10312000B5032093B40322EC30E03093B70320932F
:10313000B60326EC30E03093B9032093B803109225
:10314000BB031092BC031092BD031092BE031092F9
:103150004204109241048093430490934404A0934A
:103160004504B09346048FE191E09093400480932E
:103170003F04EBE4F4E0118210821382128239964C
:1031800024E0E339F207B9F78091B704A8EBB4E083
:103190009FEF48EB5BE08C3078F48C93282F30E085
:1031A000F901EE0FFF1F2E0F3F1FF901ED56FB4FE8
:1031B000528341838F5F01C09C93139624E0AC3D02
:1031C000B20749F78093B7048CED94E010921D0587
:1031D00010921C059093200580931F0520E430E099
:1031E0003093220520932105109223051092240587
:1031F0001092260510922505109227051092290598
:103200001092280510922B0510922A0510922D0578
:1032100010922C0510922F0510922E051092310558
:103220001092300510923305109232051092350538
:103230001092340510923B0510923A0510923D050C
:1032400010923C0510923F0510923E0510924105E8
:103250001092400510924F0510924E0510921E05D7
:1032600010925C0510925E0510925D0510929B0510
:1032700029ED30E030934305209342052FEC30E0F8
:10328000309345052093440521EB30E0309347050A
:103290002093460527EA30E03093490520934805FE
:1032A00025EC30E030934B0520934A052BEB30E0C2
:1032B00030934D0520934C0526EA30E030935105BC
:1032C000209350052BE930E03093530520935205AD
:1032D0002CE236E030935505209354059093370542
:1032E000809336052FE132E0309357052093560541
:1032F000909339058093380583E990E090935905C0
:10330000809358050895052E97FB1EF400940E94A3
:103310009A1957FD07D00E94B51907FC03D04EF447
:103320000C949A1950954095309521953F4F4F4FE9
:103330005F4F089590958095709561957F4F8F4F61
:103340009F4F08950E94D719A59F900DB49F900D8F
:10335000A49F800D911D11240895B7FF0C94A2190C
:103360000E94A219821B930B0895A1E21A2EAA1B98
:10337000BB1BFD010DC0AA1FBB1FEE1FFF1FA21725
:10338000B307E407F50720F0A21BB30BE40BF50B22
:10339000661F771F881F991F1A9469F760957095AB
:1033A000809590959B01AC01BD01CF010895A29F2E
:1033B000B001B39FC001A39F700D811D1124911D09
:1033C000B29F700D811D1124911D0895991B79E004
:1033D00004C0991F961708F0961B881F7A95C9F7A5
:1033E00080950895EE0FFF1F0590F491E02D09944C
:1033F0000F931F93CF93DF938230910510F482E0F7
:1034000090E0E0919E05F0919F0520E030E0A0E083
:10341000B0E0309719F14081518102811381481742
:103420005907C8F08417950769F4109731F0129680
:103430000C93129713961C9327C000939E0510932C
:103440009F0522C02115310519F04217530718F4C2
:103450009A01BD01EF01DF01F801DBCF2115310534
:10346000F9F0281B390B2430310580F48A819B81C7
:103470006115710521F0FB019383828304C0909351
:103480009F0580939E05FE01329644C0FE01E20F27
:10349000F31F8193919322503109398328833AC0D5
:1034A00020919C0530919D05232B41F4209105012D
:1034B0003091060130939D0520939C0520910301D6
:1034C000309104012115310541F42DB73EB74091EB
:1034D000070150910801241B350BE0919C05F091E8
:1034E0009D05E217F307A0F42E1B3F0B28173907A1
:1034F00078F0AC014E5F5F4F2417350748F04E0F50
:103500005F1F50939D0540939C058193919302C04A
:10351000E0E0F0E0CF01DF91CF911F910F9108958E
:10352000CF93DF93009709F481C0FC013297138297
:103530001282A0919E05B0919F05109781F4208181
:103540003181820F931F20919C0530919D05281792
:10355000390751F5F0939D05E0939C0567C0ED0197
:1035600020E030E0CE17DF0740F44A815B819E0106
:1035700041155105F1F0EA01F5CFD383C2834081B3
:103580005181840F951FC817D90759F488819981F3
:10359000840F951F0296918380838A819B819383F8
:1035A00082832115310529F4F0939F05E0939E0550
:1035B0003DC0E901FB83EA8349915991C40FD51FAE
:1035C000EC17FD0761F480819181840F951F0296AD
:1035D000E90199838883828193819B838A83E0E0D8
:1035E000F0E012968D919C911397009719F0FD01D0
:1035F000DC01F7CF8D919C9111979D012E5F3F4F7C
:10360000820F931F20919C0530919D052817390743
:1036100069F4309729F410929F0510929E0502C01C
:1036200013821282B0939D05A0939C05DF91CF91E8
:10363000089581E090E0F8940C944F1BFB01DC01AD
:1036400002C001900D9241505040D8F7089568177C
:10365000790768F4FB01DC01E40FF51FA40FB51F27
:1036600002C002900E9241505040D8F708950C9439
:103670001E1BDC0101C06D9341505040E0F70895DE
:10368000FB01DC014150504048F001900D920020B8
:10369000C9F701C01D9241505040E0F70895F894D9
:0236A000FFCF5A
:1036A200FF13000000A0058000000000000F0DA81D
:1036B2000CD20C5C0DD60DE10CF50C000000009E46
:1036C2000E710ECE0E450E690E550E460E49324350
:1036D2003A20546F6F206D616E7920627974657340
:1036E200207265636569766564004932433A205405
:1036F2006F6F2066657720627974657320726563E7
:103702006569766564004D617820736572766F73C2
:1037120020617474616368656400556E6B6E6F77C7
:103722006E2070696E206D6F64650031302D6269A4
:10373200742061646472657373696E67206E6F745E
:1037420020737570706F7274656400746F6F206D92
:10375200616E792071756572696573002F557365A5
:1037620072732F616A6669736865722F6465762F5A
:103772006E6F64652D706978656C2F6669726D77FE
:103782006172652F6275696C642F6E6F64655F701C
:103792006978656C5F6669726D6174612F6E6F64C2
:1037A200655F706978656C5F6669726D6174612EC0
:0437B200696E6F00CD
:00000001FF
